{
  "contractName": "auction_chenjunjie",
  "abi": [
    {
      "inputs": [],
      "stateMutability": "nonpayable",
      "type": "constructor"
    },
    {
      "anonymous": false,
      "inputs": [
        {
          "indexed": false,
          "internalType": "address",
          "name": "winner",
          "type": "address"
        },
        {
          "indexed": false,
          "internalType": "uint256",
          "name": "amount",
          "type": "uint256"
        }
      ],
      "name": "EndAuction_chenjunjie",
      "type": "event"
    },
    {
      "anonymous": false,
      "inputs": [
        {
          "indexed": false,
          "internalType": "address",
          "name": "bidder",
          "type": "address"
        },
        {
          "indexed": false,
          "internalType": "uint256",
          "name": "amount",
          "type": "uint256"
        }
      ],
      "name": "HigherBid_chenjunjie",
      "type": "event"
    },
    {
      "anonymous": false,
      "inputs": [
        {
          "indexed": false,
          "internalType": "address",
          "name": "starter",
          "type": "address"
        }
      ],
      "name": "StartAuction_chenjunjie",
      "type": "event"
    },
    {
      "inputs": [],
      "name": "productIndex_chenjunjie",
      "outputs": [
        {
          "internalType": "uint256",
          "name": "",
          "type": "uint256"
        }
      ],
      "stateMutability": "view",
      "type": "function",
      "constant": true
    },
    {
      "inputs": [
        {
          "internalType": "string",
          "name": "_ProductName",
          "type": "string"
        },
        {
          "internalType": "string",
          "name": "_ProductDesc",
          "type": "string"
        },
        {
          "internalType": "uint256",
          "name": "_startPrice",
          "type": "uint256"
        },
        {
          "internalType": "uint256",
          "name": "_MinimunBid",
          "type": "uint256"
        },
        {
          "internalType": "uint256",
          "name": "_duration",
          "type": "uint256"
        }
      ],
      "name": "startAuction_chenjunjie",
      "outputs": [],
      "stateMutability": "nonpayable",
      "type": "function"
    },
    {
      "inputs": [
        {
          "internalType": "uint256",
          "name": "_ProductId_chenjunjie",
          "type": "uint256"
        }
      ],
      "name": "getProductInfo_chenjunjie",
      "outputs": [
        {
          "internalType": "uint256",
          "name": "",
          "type": "uint256"
        },
        {
          "internalType": "string",
          "name": "",
          "type": "string"
        },
        {
          "internalType": "string",
          "name": "",
          "type": "string"
        },
        {
          "internalType": "uint256",
          "name": "",
          "type": "uint256"
        },
        {
          "internalType": "uint256",
          "name": "",
          "type": "uint256"
        },
        {
          "internalType": "uint256",
          "name": "",
          "type": "uint256"
        },
        {
          "internalType": "uint256",
          "name": "",
          "type": "uint256"
        },
        {
          "internalType": "address",
          "name": "",
          "type": "address"
        },
        {
          "internalType": "bool",
          "name": "",
          "type": "bool"
        },
        {
          "internalType": "bool",
          "name": "",
          "type": "bool"
        }
      ],
      "stateMutability": "view",
      "type": "function",
      "constant": true
    },
    {
      "inputs": [
        {
          "internalType": "uint256",
          "name": "_ProductId_chenjunjie",
          "type": "uint256"
        }
      ],
      "name": "getBidofProduct_chenjunjie",
      "outputs": [
        {
          "internalType": "address",
          "name": "",
          "type": "address"
        },
        {
          "internalType": "uint256",
          "name": "",
          "type": "uint256"
        }
      ],
      "stateMutability": "view",
      "type": "function",
      "constant": true
    },
    {
      "inputs": [
        {
          "internalType": "uint256",
          "name": "_ProductId_chenjunjie",
          "type": "uint256"
        }
      ],
      "name": "Auctionramainingtimer_chenjunjie",
      "outputs": [
        {
          "internalType": "uint256",
          "name": "",
          "type": "uint256"
        }
      ],
      "stateMutability": "view",
      "type": "function",
      "constant": true
    },
    {
      "inputs": [
        {
          "internalType": "uint256",
          "name": "_ProductId_chenjunjie",
          "type": "uint256"
        }
      ],
      "name": "bid_chenjunjie",
      "outputs": [],
      "stateMutability": "payable",
      "type": "function",
      "payable": true
    },
    {
      "inputs": [
        {
          "internalType": "uint256",
          "name": "_ProductId_chenjunjie",
          "type": "uint256"
        }
      ],
      "name": "settleAuction_chenjunjie",
      "outputs": [],
      "stateMutability": "nonpayable",
      "type": "function"
    }
  ],
  "bytecode": "0x608060405234801561001057600080fd5b5060008081905550611bff806100276000396000f3fe6080604052600436106100705760003560e01c8063da03d3321161004e578063da03d33214610102578063f379c86014610140578063f71eb84a14610169578063f78a72b31461019257610070565b806369f19135146100755780636faee74c146100915780637d8e6953146100bc575b600080fd5b61008f600480360381019061008a9190610fd7565b6101cf565b005b34801561009d57600080fd5b506100a661060d565b6040516100b39190611013565b60405180910390f35b3480156100c857600080fd5b506100e360048036038101906100de9190610fd7565b610613565b6040516100f99a99989796959493929190611123565b60405180910390f35b34801561010e57600080fd5b5061012960048036038101906101249190610fd7565b61084d565b6040516101379291906111cd565b60405180910390f35b34801561014c57600080fd5b5061016760048036038101906101629190610fd7565b61090b565b005b34801561017557600080fd5b50610190600480360381019061018b919061132b565b610c06565b005b34801561019e57600080fd5b506101b960048036038101906101b49190610fd7565b610e4a565b6040516101c69190611013565b60405180910390f35b6000600160006002600085815260200190815260200160002060009054906101000a900473ffffffffffffffffffffffffffffffffffffffff1673ffffffffffffffffffffffffffffffffffffffff1673ffffffffffffffffffffffffffffffffffffffff168152602001908152602001600020600083815260200190815260200160002090503481600801819055508060060160149054906101000a900460ff166102b0576040517f08c379a00000000000000000000000000000000000000000000000000000000081526004016102a79061142a565b60405180910390fd5b806004015442116102f6576040517f08c379a00000000000000000000000000000000000000000000000000000000081526004016102ed906114bc565b60405180910390fd5b8060050154421061033c576040517f08c379a00000000000000000000000000000000000000000000000000000000081526004016103339061154e565b60405180910390fd5b8060060160009054906101000a900473ffffffffffffffffffffffffffffffffffffffff1673ffffffffffffffffffffffffffffffffffffffff163373ffffffffffffffffffffffffffffffffffffffff1614156103cf576040517f08c379a00000000000000000000000000000000000000000000000000000000081526004016103c6906115e0565b60405180910390fd5b8060030154341015610416576040517f08c379a000000000000000000000000000000000000000000000000000000000815260040161040d90611672565b60405180910390fd5b8060070154816003015461042a91906116c1565b34101561046c576040517f08c379a000000000000000000000000000000000000000000000000000000000815260040161046390611789565b60405180910390fd5b80600a015434116104b2576040517f08c379a00000000000000000000000000000000000000000000000000000000081526004016104a99061181b565b60405180910390fd5b806007015481600a01546104c691906116c1565b341015610508576040517f08c379a00000000000000000000000000000000000000000000000000000000081526004016104ff90611789565b60405180910390fd5b600081600a015414610584578060090160009054906101000a900473ffffffffffffffffffffffffffffffffffffffff1673ffffffffffffffffffffffffffffffffffffffff166108fc82600a01549081150290604051600060405180830381858888f19350505050158015610582573d6000803e3d6000fd5b505b338160090160006101000a81548173ffffffffffffffffffffffffffffffffffffffff021916908373ffffffffffffffffffffffffffffffffffffffff1602179055503481600a01819055507f145e6530205a1c01b853f7d4ef8c31fe01af2bbc1e01d1bdace994878cbff21c33346040516106019291906111cd565b60405180910390a15050565b60005481565b600060608060008060008060008060008060016000600260008f815260200190815260200160002060009054906101000a900473ffffffffffffffffffffffffffffffffffffffff1673ffffffffffffffffffffffffffffffffffffffff1673ffffffffffffffffffffffffffffffffffffffff16815260200190815260200160002060008d815260200190815260200160002090508060000154816001018260020183600301548460070154856004015486600501548760060160009054906101000a900473ffffffffffffffffffffffffffffffffffffffff168860060160149054906101000a900460ff168960060160159054906101000a900460ff1688805461071f9061186a565b80601f016020809104026020016040519081016040528092919081815260200182805461074b9061186a565b80156107985780601f1061076d57610100808354040283529160200191610798565b820191906000526020600020905b81548152906001019060200180831161077b57829003601f168201915b505050505098508780546107ab9061186a565b80601f01602080910402602001604051908101604052809291908181526020018280546107d79061186a565b80156108245780601f106107f957610100808354040283529160200191610824565b820191906000526020600020905b81548152906001019060200180831161080757829003601f168201915b505050505097509a509a509a509a509a509a509a509a509a509a50509193959799509193959799565b6000806000600160006002600087815260200190815260200160002060009054906101000a900473ffffffffffffffffffffffffffffffffffffffff1673ffffffffffffffffffffffffffffffffffffffff1673ffffffffffffffffffffffffffffffffffffffff168152602001908152602001600020600085815260200190815260200160002090508060090160009054906101000a900473ffffffffffffffffffffffffffffffffffffffff1681600a01549250925050915091565b6000600160006002600085815260200190815260200160002060009054906101000a900473ffffffffffffffffffffffffffffffffffffffff1673ffffffffffffffffffffffffffffffffffffffff1673ffffffffffffffffffffffffffffffffffffffff16815260200190815260200160002060008381526020019081526020016000209050600115158160060160149054906101000a900460ff161515146109ea576040517f08c379a00000000000000000000000000000000000000000000000000000000081526004016109e19061142a565b60405180910390fd5b8060050154421015610a31576040517f08c379a0000000000000000000000000000000000000000000000000000000008152600401610a28906118e8565b60405180910390fd5b8060060160159054906101000a900460ff1615610a83576040517f08c379a0000000000000000000000000000000000000000000000000000000008152600401610a7a90611954565b60405180910390fd5b3373ffffffffffffffffffffffffffffffffffffffff168160060160009054906101000a900473ffffffffffffffffffffffffffffffffffffffff1673ffffffffffffffffffffffffffffffffffffffff1614610b15576040517f08c379a0000000000000000000000000000000000000000000000000000000008152600401610b0c90611a0c565b60405180910390fd5b60018160060160156101000a81548160ff0219169083151502179055507f1b8f25525dd4d8d515ad8918962b03b538b2856fa5359650655648610317acdd8160090160009054906101000a900473ffffffffffffffffffffffffffffffffffffffff1682600a0154604051610b8b929190611a8b565b60405180910390a18060060160009054906101000a900473ffffffffffffffffffffffffffffffffffffffff1673ffffffffffffffffffffffffffffffffffffffff166108fc82600a01549081150290604051600060405180830381858888f19350505050158015610c01573d6000803e3d6000fd5b505050565b6001600080828254610c1891906116c1565b925050819055506000600160003373ffffffffffffffffffffffffffffffffffffffff1673ffffffffffffffffffffffffffffffffffffffff16815260200190815260200160002060008054815260200190815260200160002090508060060160149054906101000a900460ff1615610cc6576040517f08c379a0000000000000000000000000000000000000000000000000000000008152600401610cbd90611b00565b60405180910390fd5b6000548160000181905550338160060160006101000a81548173ffffffffffffffffffffffffffffffffffffffff021916908373ffffffffffffffffffffffffffffffffffffffff1602179055504281600401819055508142610d2991906116c1565b816005018190555085816001019080519060200190610d49929190610eea565b5084816002019080519060200190610d62929190610eea565b50670de0b6b3a764000084610d779190611b20565b8160030181905550670de0b6b3a764000083610d939190611b20565b816007018190555060018160060160146101000a81548160ff0219169083151502179055507f3e2c556defe36a93a6070d45b69536f28ba6c41a8b29acb27b3e4be18a19972d33604051610de79190611b7a565b60405180910390a133600260008054815260200190815260200160002060006101000a81548173ffffffffffffffffffffffffffffffffffffffff021916908373ffffffffffffffffffffffffffffffffffffffff160217905550505050505050565b600080600160006002600086815260200190815260200160002060009054906101000a900473ffffffffffffffffffffffffffffffffffffffff1673ffffffffffffffffffffffffffffffffffffffff1673ffffffffffffffffffffffffffffffffffffffff16815260200190815260200160002060008481526020019081526020016000209050428160050154610ee29190611b95565b915050919050565b828054610ef69061186a565b90600052602060002090601f016020900481019282610f185760008555610f5f565b82601f10610f3157805160ff1916838001178555610f5f565b82800160010185558215610f5f579182015b82811115610f5e578251825591602001919060010190610f43565b5b509050610f6c9190610f70565b5090565b5b80821115610f89576000816000905550600101610f71565b5090565b6000604051905090565b600080fd5b600080fd5b6000819050919050565b610fb481610fa1565b8114610fbf57600080fd5b50565b600081359050610fd181610fab565b92915050565b600060208284031215610fed57610fec610f97565b5b6000610ffb84828501610fc2565b91505092915050565b61100d81610fa1565b82525050565b60006020820190506110286000830184611004565b92915050565b600081519050919050565b600082825260208201905092915050565b60005b8381101561106857808201518184015260208101905061104d565b83811115611077576000848401525b50505050565b6000601f19601f8301169050919050565b60006110998261102e565b6110a38185611039565b93506110b381856020860161104a565b6110bc8161107d565b840191505092915050565b600073ffffffffffffffffffffffffffffffffffffffff82169050919050565b60006110f2826110c7565b9050919050565b611102816110e7565b82525050565b60008115159050919050565b61111d81611108565b82525050565b600061014082019050611139600083018d611004565b818103602083015261114b818c61108e565b9050818103604083015261115f818b61108e565b905061116e606083018a611004565b61117b6080830189611004565b61118860a0830188611004565b61119560c0830187611004565b6111a260e08301866110f9565b6111b0610100830185611114565b6111be610120830184611114565b9b9a5050505050505050505050565b60006040820190506111e260008301856110f9565b6111ef6020830184611004565b9392505050565b600080fd5b600080fd5b7f4e487b7100000000000000000000000000000000000000000000000000000000600052604160045260246000fd5b6112388261107d565b810181811067ffffffffffffffff8211171561125757611256611200565b5b80604052505050565b600061126a610f8d565b9050611276828261122f565b919050565b600067ffffffffffffffff82111561129657611295611200565b5b61129f8261107d565b9050602081019050919050565b82818337600083830152505050565b60006112ce6112c98461127b565b611260565b9050828152602081018484840111156112ea576112e96111fb565b5b6112f58482856112ac565b509392505050565b600082601f830112611312576113116111f6565b5b81356113228482602086016112bb565b91505092915050565b600080600080600060a0868803121561134757611346610f97565b5b600086013567ffffffffffffffff81111561136557611364610f9c565b5b611371888289016112fd565b955050602086013567ffffffffffffffff81111561139257611391610f9c565b5b61139e888289016112fd565b94505060406113af88828901610fc2565b93505060606113c088828901610fc2565b92505060806113d188828901610fc2565b9150509295509295909350565b7f5468652061756374696f6e20686173206e6f742079657420626567756e000000600082015250565b6000611414601d83611039565b915061141f826113de565b602082019050919050565b6000602082019050818103600083015261144381611407565b9050919050565b7f54686973206973206561726c696572207468616e207468652061756374696f6e60008201527f2073746172742074696d65000000000000000000000000000000000000000000602082015250565b60006114a6602b83611039565b91506114b18261144a565b604082019050919050565b600060208201905081810360008301526114d581611499565b9050919050565b7f54686973206973206c61746572207468616e207468652061756374696f6e206560008201527f6e642074696d6500000000000000000000000000000000000000000000000000602082015250565b6000611538602783611039565b9150611543826114dc565b604082019050919050565b600060208201905081810360008301526115678161152b565b9050919050565b7f596f7520617265207468652062656e6566696369617279206f6620746869732060008201527f61756374696f6e00000000000000000000000000000000000000000000000000602082015250565b60006115ca602783611039565b91506115d58261156e565b604082019050919050565b600060208201905081810360008301526115f9816115bd565b9050919050565b7f596f757220626964206973206c657373207468616e207468652073746172746960008201527f6e67207072696365000000000000000000000000000000000000000000000000602082015250565b600061165c602883611039565b915061166782611600565b604082019050919050565b6000602082019050818103600083015261168b8161164f565b9050919050565b7f4e487b7100000000000000000000000000000000000000000000000000000000600052601160045260246000fd5b60006116cc82610fa1565b91506116d783610fa1565b9250827fffffffffffffffffffffffffffffffffffffffffffffffffffffffffffffffff0382111561170c5761170b611692565b5b828201905092915050565b7f596f7572206269642073686f756c64206c6172676572207468616e207468652060008201527f6d696e696d756e20626964000000000000000000000000000000000000000000602082015250565b6000611773602b83611039565b915061177e82611717565b604082019050919050565b600060208201905081810360008301526117a281611766565b9050919050565b7f596f757220626964206973206c657373207468616e207468652068696768657360008201527f7420626964000000000000000000000000000000000000000000000000000000602082015250565b6000611805602583611039565b9150611810826117a9565b604082019050919050565b60006020820190508181036000830152611834816117f8565b9050919050565b7f4e487b7100000000000000000000000000000000000000000000000000000000600052602260045260246000fd5b6000600282049050600182168061188257607f821691505b602082108114156118965761189561183b565b5b50919050565b7f5468652061756374696f6e206973206e6f74206f766572207965740000000000600082015250565b60006118d2601b83611039565b91506118dd8261189c565b602082019050919050565b60006020820190508181036000830152611901816118c5565b9050919050565b7f5468652061756374696f6e206973206f76657200000000000000000000000000600082015250565b600061193e601383611039565b915061194982611908565b602082019050919050565b6000602082019050818103600083015261196d81611931565b9050919050565b7f54686520736574746c656d656e74206f66207468652061756374696f6e20697360008201527f206f6e6c7920617661696c61626c6520666f72207468652062656e656669636960208201527f6172790000000000000000000000000000000000000000000000000000000000604082015250565b60006119f6604383611039565b9150611a0182611974565b606082019050919050565b60006020820190508181036000830152611a25816119e9565b9050919050565b6000819050919050565b6000611a51611a4c611a47846110c7565b611a2c565b6110c7565b9050919050565b6000611a6382611a36565b9050919050565b6000611a7582611a58565b9050919050565b611a8581611a6a565b82525050565b6000604082019050611aa06000830185611a7c565b611aad6020830184611004565b9392505050565b7f5468652061756374696f6e2068617320626567756e0000000000000000000000600082015250565b6000611aea601583611039565b9150611af582611ab4565b602082019050919050565b60006020820190508181036000830152611b1981611add565b9050919050565b6000611b2b82610fa1565b9150611b3683610fa1565b9250817fffffffffffffffffffffffffffffffffffffffffffffffffffffffffffffffff0483118215151615611b6f57611b6e611692565b5b828202905092915050565b6000602082019050611b8f60008301846110f9565b92915050565b6000611ba082610fa1565b9150611bab83610fa1565b925082821015611bbe57611bbd611692565b5b82820390509291505056fea2646970667358221220e1e52f310e50af497876ba4a9bc203967bd5383f272e2e76cf99e63cf3f6dd6c64736f6c634300080a0033",
  "immutableReferences": {},
  "source": "// SPDX-License-Identifier: MIT\r\npragma solidity ^0.8.0;\r\n\r\n\r\ncontract auction_chenjunjie {\r\n\r\n    uint public productIndex_chenjunjie;\r\n\r\n    struct ProductInfo_chenjunjie {\r\n        uint ProductId_chenjunjie;\r\n        string ProductName_chenjunjie;\r\n        string ProductDesc_chenjunjie;\r\n        uint startPrice_chenjunjie;\r\n        uint StartTime_chenjunjie;\r\n        uint TimeLimit_chenjunjie;\r\n        address Beneficiary_chenjunjie;\r\n        bool startState_chenjunjie;\r\n        bool endState_chenjunjie;\r\n        uint MinimunBid_chenjunjie;\r\n        uint Bidvalue_chenjunjie;\r\n        address payable highestBidder_chenjunjie;\r\n        uint highestBid_chenjunjie;\r\n    }\r\n\r\n    event HigherBid_chenjunjie (\r\n        address bidder,\r\n         uint amount\r\n         );\r\n    event StartAuction_chenjunjie (\r\n        address starter\r\n        );\r\n    event EndAuction_chenjunjie (\r\n        address winner,\r\n         uint amount\r\n         );\r\n    mapping (\r\n        address => mapping(\r\n            uint => ProductInfo_chenjunjie\r\n            )\r\n    ) stores_chenjunjie;\r\n    mapping (\r\n        uint => address\r\n        ) productIdInStore_chenjunjie;\r\n\r\n    constructor() {\r\n        productIndex_chenjunjie = 0;\r\n    }\r\n\r\n\tfunction startAuction_chenjunjie(\r\n        string memory _ProductName,\r\n        string memory _ProductDesc,\r\n        uint _startPrice,\r\n        uint _MinimunBid,\r\n        uint _duration)\r\n            public {\r\n        productIndex_chenjunjie += 1;\r\n        ProductInfo_chenjunjie storage product =\r\n         stores_chenjunjie[\r\n             msg.sender\r\n             ][\r\n                 productIndex_chenjunjie\r\n                 ];\r\n        require(!product.startState_chenjunjie,\r\n         \"The auction has begun\");\r\n        product.ProductId_chenjunjie =\r\n         productIndex_chenjunjie;\r\n        product.Beneficiary_chenjunjie =\r\n         msg.sender;\r\n        product.StartTime_chenjunjie =\r\n         block.timestamp;\r\n        product.TimeLimit_chenjunjie =\r\n         block.timestamp + _duration;\r\n        product.ProductName_chenjunjie =\r\n         _ProductName;\r\n        product.ProductDesc_chenjunjie =\r\n         _ProductDesc;\r\n        product.startPrice_chenjunjie =\r\n         _startPrice \r\n         *\r\n          1000000000000000000;\r\n        product.MinimunBid_chenjunjie =\r\n         _MinimunBid \r\n         *\r\n          1000000000000000000;\r\n\t    product.startState_chenjunjie =\r\n         true;\r\n\t    emit StartAuction_chenjunjie(\r\n            msg.sender\r\n            );\r\n        productIdInStore_chenjunjie[\r\n            productIndex_chenjunjie\r\n            ] = msg.sender;\r\n    }\r\n\r\n    function getProductInfo_chenjunjie(\r\n        uint _ProductId_chenjunjie\r\n        )\r\n     public view\r\n      returns (\r\n            uint,\r\n        string memory,\r\n        string memory,\r\n            uint,\r\n            uint,\r\n            uint,\r\n            uint,\r\n            address,\r\n            bool,\r\n            bool\r\n            ) {\r\n        ProductInfo_chenjunjie storage product =\r\n         stores_chenjunjie\r\n        [\r\n            productIdInStore_chenjunjie\r\n            [\r\n                _ProductId_chenjunjie\r\n                ]\r\n                ][\r\n                    _ProductId_chenjunjie\r\n                    ];\r\n        return (\r\n            product.ProductId_chenjunjie,\r\n             product.ProductName_chenjunjie,\r\n              product.ProductDesc_chenjunjie,\r\n               product.startPrice_chenjunjie,\r\n                product.MinimunBid_chenjunjie,\r\n                 product.StartTime_chenjunjie,\r\n                  product.TimeLimit_chenjunjie,\r\n                   product.Beneficiary_chenjunjie,\r\n                    product.startState_chenjunjie,\r\n                     product.endState_chenjunjie\r\n                     );\r\n    }\r\n\r\n    function getBidofProduct_chenjunjie(\r\n        uint _ProductId_chenjunjie\r\n        ) public view returns (\r\n            address,\r\n             uint\r\n            ) {\r\n        ProductInfo_chenjunjie storage product =\r\n         stores_chenjunjie\r\n        [productIdInStore_chenjunjie\r\n        [_ProductId_chenjunjie]\r\n        ][\r\n            _ProductId_chenjunjie\r\n            ];\r\n        return (\r\n            product.highestBidder_chenjunjie,\r\n             product.highestBid_chenjunjie\r\n             );\r\n    }\r\n\r\n    function Auctionramainingtimer_chenjunjie(\r\n        uint _ProductId_chenjunjie\r\n        ) public view returns (\r\n            uint\r\n            ){\r\n        ProductInfo_chenjunjie storage product =\r\n         stores_chenjunjie\r\n        [productIdInStore_chenjunjie\r\n        [_ProductId_chenjunjie]\r\n        ][\r\n            _ProductId_chenjunjie\r\n            ];\r\n        return \r\n        product.TimeLimit_chenjunjie - block.timestamp;\r\n    }\r\n\r\n    function bid_chenjunjie(\r\n        uint _ProductId_chenjunjie\r\n        ) payable public {\r\n        ProductInfo_chenjunjie storage product =\r\n         stores_chenjunjie\r\n        [productIdInStore_chenjunjie\r\n        [_ProductId_chenjunjie]\r\n        ][\r\n            _ProductId_chenjunjie\r\n            ];\r\n        product.Bidvalue_chenjunjie =\r\n         msg.value;\r\n        require(\r\n            product.startState_chenjunjie,\r\n         \"The auction has not yet begun\");\r\n        require(\r\n            block.timestamp > product.StartTime_chenjunjie,\r\n         \"This is earlier than the auction start time\");\r\n        require(\r\n            block.timestamp < product.TimeLimit_chenjunjie,\r\n         \"This is later than the auction end time\");\r\n        require(\r\n            msg.sender != product.Beneficiary_chenjunjie,\r\n         \"You are the beneficiary of this auction\");\r\n        require(\r\n            msg.value >= product.startPrice_chenjunjie,\r\n         \"Your bid is less than the starting price\");\r\n        require(\r\n            msg.value >= product.startPrice_chenjunjie\r\n             + product.MinimunBid_chenjunjie,\r\n         \"Your bid should larger than the minimun bid\");\r\n        require(\r\n            msg.value > product.highestBid_chenjunjie,\r\n         \"Your bid is less than the highest bid\");\r\n        require(\r\n            msg.value >= product.highestBid_chenjunjie\r\n             + product.MinimunBid_chenjunjie,\r\n         \"Your bid should larger than the minimun bid\");\r\n\r\n        if (\r\n            product.highestBid_chenjunjie != 0\r\n            ) {\r\n          payable(\r\n              product.highestBidder_chenjunjie\r\n              ).transfer(\r\n                  product.highestBid_chenjunjie\r\n                  );\r\n        }\r\n\r\n        product.highestBidder_chenjunjie =\r\n         payable(msg.sender);\r\n        product.highestBid_chenjunjie =\r\n         msg.value;\r\n\r\n        emit HigherBid_chenjunjie(\r\n            msg.sender,\r\n             msg.value\r\n             );\r\n    }\r\n\r\n    function settleAuction_chenjunjie(\r\n        uint _ProductId_chenjunjie\r\n        ) public {\r\n        ProductInfo_chenjunjie storage product =\r\n         stores_chenjunjie\r\n        [productIdInStore_chenjunjie\r\n        [_ProductId_chenjunjie]\r\n        ][\r\n            _ProductId_chenjunjie\r\n            ];\r\n        require(\r\n            product.startState_chenjunjie==true,\r\n             \"The auction has not yet begun\");\r\n        require(\r\n            block.timestamp >= product.TimeLimit_chenjunjie,\r\n             \"The auction is not over yet\");\r\n        require(\r\n            !product.endState_chenjunjie,\r\n             \"The auction is over\");\r\n        require(\r\n            product.Beneficiary_chenjunjie == msg.sender,\r\n             \"The settlement of the auction is only available for the beneficiary\");\r\n        product.endState_chenjunjie = true;\r\n        emit EndAuction_chenjunjie(\r\n            product.highestBidder_chenjunjie,\r\n             product.highestBid_chenjunjie\r\n             );\r\n        payable(\r\n            product.Beneficiary_chenjunjie\r\n            ).transfer(\r\n                product.highestBid_chenjunjie\r\n                );\r\n    }\r\n}",
  "sourcePath": "C:\\Users\\Aliceonly\\Desktop\\exercise1 blank (2)\\truffle\\contracts\\auction_chenjunjie.sol",
  "compiler": {
    "name": "solc",
    "version": "0.8.10+commit.fc410830.Emscripten.clang"
  },
  "schemaVersion": "3.4.3",
  "updatedAt": "2021-12-16T03:33:13.836Z",
  "networkType": "ethereum",
  "devdoc": {
    "kind": "dev",
    "methods": {},
    "version": 1
  },
  "userdoc": {
    "kind": "user",
    "methods": {},
    "version": 1
  }
}